:020000040800F2
:10000000080F00109D0100086D1200086912000819
:100010006B12000865110008491300080000000079
:100020000000000000000000000000008112000835
:1000300067110008000000007F120008831200080A
:10004000B7010008B7010008B7010008B7010008B0
:10005000B7010008B7010008B7010008B7010008A0
:10006000B7010008B7010008B7010008B701000890
:10007000B7010008B7010008B7010008B701000880
:10008000B7010008B7010008B7010008B701000870
:10009000B7010008B7010008B7010008B701000860
:1000A000B7010008B7010008B7010008B701000850
:1000B000A5120008B701000800000000B701000801
:1000C000B70100080000000000000000B7010008B0
:1000D00000000000B7010008B7010008B7010008E0
:1000E000B7010008B7010008000000000000000090
:1000F0000000000000000000000000000000000000
:1001000000000000000000000000000000000000EF
:100110000000000000000000B7010008B70100085F
:1001200000000000000000000000000000000000CF
:1001300000000000000000000000000000000000BF
:10014000B7010008B701000800000000000000002F
:10015000000000000000000000000000000000009F
:10016000000000000000000000000000000000008F
:10017000000000000000000000000000000000007F
:1001800000000000B7010008DFF80CD000F010FDFF
:100190000048004719150008080F0010064880475E
:1001A00006480047FEE7FEE7FEE7FEE7FEE7FEE75C
:1001B000FEE7FEE7FEE7FEE793120008890100086C
:1001C0000649074A0868504343F239021044086060
:1001D0004008704701490860704700000000002097
:1001E0006D4EC64140EA01039B0703D009E008C9F0
:1001F000121F08C0042AFAD203E011F8013B00F8EC
:10020000013B521EF9D27047D2B201E000F8012B37
:10021000491EFBD270470022F6E710B513460A4686
:1002200004461946FFF7F0FF204610BD30B50446DE
:100230000020034600E05B1C934203D2E05CCD5CEF
:10024000401BF8D030BD00000FB400B589B00BA83A
:1002500000906A4603480A9900F0C0FA09B05DF8B8
:1002600014FB0000040000202DE9FF5F1D464FF045
:10027000FF3BD5E9014691465F464FF00008A9696A
:100280007F1C01988847296A824688470028F6D152
:10029000BAF1FF3F0CD024F4C064002E19DD6006D3
:1002A00014D5BAF12B0F09D0BAF12D0F0ED103E0FE
:1002B000584604B0BDE8F09F44F48064A9697F1CEF
:1002C00001988847761E8246002E02DDBAF1300F73
:1002D00003D0B9F1000F26D032E0A969761E44F4AC
:1002E00000747F1C019888478246002E05DDBAF114
:1002F000780F06D0BAF1580F03D0B9F1000F10D023
:100300001EE0B9F1000F02D0B9F1100F18D1A969A0
:10031000761E24F400747F1C0198884782461020C2
:1003200002E0082000E00A20814609E008FB0908F5
:10033000A969761E44F400747F1C019888478246A0
:10034000002E05DD4946504600F03AFA0028EDDA65
:10035000E96901988847A00502D46FF00100A8E779
:10036000E00725D1600613D5600502D5C8F100006D
:1003700000E0404629680A1D2A600968220501D567
:10038000087015E0220701D5088011E008600FE031
:100390002868011D29600068210502D580F80080C9
:1003A00006E0210702D5A0F8008001E0C0F8008037
:1003B00038467EE72DE9FF4F087883B09946FF283D
:1003C00005D0491C2D2804D00024002008E000207E
:1003D0000BE00124F9E700EB800003EB4000491C2F
:1003E0000B78FF2BF7D104B140420023029314781D
:1003F00019461D462D2C01D02B2C04D1521C2D2C1E
:1004000013D000240294AA461478FF2C0FD00A259A
:10041000A3FB057801FB05814FF0000C03FB0C11D9
:10042000521CE3194AEB0101EEE70124EAE781449B
:1004300053EA010002D019F5C87F06DA03980021BB
:10044000C0E9001107B0BDE8F08F0025AE4E2F4681
:10045000DFF8B882184600F053FBCDE90001B9F18E
:10046000000002DAC9F1000400E004460023A74AB4
:100470001AEB030B42EB045A12E0E00707D02A46BE
:1004800033463846414600F05AFA074688462A461F
:1004900033461046194600F052FA05460E466410DF
:1004A000002CEAD1DDE90001B9F1000F5A465346AC
:1004B00006DA00F0B6FA3A46434600F0B2FA05E032
:1004C00000F03DFA3A46434600F039FA029A0AB182
:1004D00081F00041039AC2E90001B3E72DE9FF4F23
:1004E0001F468DB0D7E901464FF0FF382E20454614
:1004F0004FF000090B90B9696D1C0E988847396A56
:10050000824688470028F6D1BAF1FF3F0AD024F48A
:10051000D064002E11DDBAF12B0F08D0BAF12D0FE7
:100520000BD102E0404611B08DE744F48064B96914
:100530006D1C0E9888478246761E6946600501D577
:100540002D2000E02B208DF8000001F1010B0DF1B2
:10055000200809E0B9696D1C0E98884782460F98FB
:1005600044F40074761E0560002E02DDBAF1300FEF
:10057000F0D00B998A453ED144F0800406E00F99F3
:10058000681CA9F1010944F400740860B9696D1C84
:10059000761E0E98884782463028F0D02BE00B99C3
:1005A0008A4505D1200603D444F08004761E18E065
:1005B000504602F0C9F808B30DF11302761EAAF1F5
:1005C000300044F40074934506D20BF8010B20066A
:1005D00007D5A9F1010003E0200602D409F10100CA
:1005E0008146A00502D50F99681C0860B9696D1C89
:1005F0000E9888478246002ED1DC53E0002E51DD54
:10060000BAF1650F02D0BAF1450F4BD1A00549D51B
:10061000B9696D1C24F44074761E0E988847824692
:10062000002E0CDD2B2804D0BAF12D0F07D144F495
:100630008074B9696D1C0E9888478246761EE00565
:1006400001D52D2100E02B2108F8011BCDF82C80CD
:1006500021E00DF12901761E44F4007488450CD286
:10066000AAF1300010F0FF0088F8000002D10B99C9
:10067000884509D908F1010806E0E00501D52448BC
:1006800001E042F20F708146B9696D1C0E988847EF
:1006900082460F980560002E04DD504602F054F8A3
:1006A0000028D6D1F9690E988847FF208BF8000002
:1006B00088F800000020069007904B466A4608A97B
:1006C00006A8FFF777FEA00502D46FF001002AE725
:1006D00014F0240F0AD0E00714D1DDE906123868BF
:1006E000031D3B600068C0E900120BE0DDE9060174
:1006F00000F042FA0146E00704D13868021D3A6072
:100700000068016028460EE7000014400000F03F3A
:10071000F1D8FFFF30B50B4601460020202201240E
:1007200009E021FA02F59D4205D303FA02F5491BBF
:1007300004FA02F52844151EA2F10102F1DC30BDD5
:100740002DE9F05F0546002092469B468846064606
:10075000814640241BE0284641464746224600F099
:100760004FFA53465A46C01A914110D311461846C3
:10077000224600F016F82D1A67EB01084F46224674
:100780000120002100F00DF817EB00094E41201E5A
:10079000A4F10104DFDC484631462A464346BDE861
:1007A000F09F202A04DB203A00FA02F10020704773
:1007B0009140C2F1200320FA03F31943904070479F
:1007C0003A2800D2303820F02002412A01D3A2F189
:1007D0003700884201D34FF0FF307047024B9361DE
:1007E000024BD36100F034BA77130008F10B000814
:1007F0002DE9FE4F804681EA0300C00F0C460090B1
:1008000021F0004123F00045B8EB0200A94105D2D8
:100810004046214690461C460B46024623F00040C7
:10082000104347D0270DC7F30A00C3F30A510290C3
:10083000401A019040286BDAC3F3130040F4801B88
:100840000098924620B10023D2EB030A63EB0B0B16
:1008500001985946C0F140025046FFF7A2FF0646F4
:100860000D4650465946019A00F0DAF910EB08009F
:100870006141002487EA115284EAE7731A4340D0A9
:10088000009A62B3019A012A4FEA075215DC001B55
:1008900061EB02014FF0004202EA0752CDE900424B
:1008A000001C41F5801132462B4600F025FA03B0BA
:1008B000BDE8F08F40462146F9E7001B61EB0201DD
:1008C000001C41F5801300185B412018A2F50017A9
:1008D00047EB030140EAD570B6196D4111E06D0890
:1008E0004FEA360645EAC0754FEA0752001B61EB36
:1008F0000201001C41F5801149084FEA300000193F
:10090000514132462B4603B0BDE8F04F00F0E5B947
:100910000098012240000023D0EB020263EBE07359
:10092000009821464FEAE074B8EB000061EB040147
:10093000E9E783F000435BE781F0004158E72DE9E8
:10094000FE4F81EA030404F0004421F000410094CA
:100950004FF0000B23F0004350EA01045ED052EA4E
:1009600003045BD0C3F30A54C1F30A552C44A4F228
:10097000F3340194A0FB0254C1F3130141F480113C
:10098000C3F3130343F4801301FB024400FB034E43
:10099000840A970A44EA815447EA8357A4FB07680C
:1009A00002958D0A05FB07854FEA932C04FB0C5436
:1009B0002705029D4FEA065847EA1637B5EB0805AA
:1009C0006EEB070C870E920E47EA811742EA8312FC
:1009D000A7FB0201B6EB0B0164EB00042B0D43EA0D
:1009E0000C335E1844EB1C50DA465146E7FB02011B
:1009F000C5F313044FEA0B3343EA14534FEA0432AE
:100A0000019C43EA0603A4F10C040294009CCDE986
:100A100000B400F071F903B0BDE8F08F002001468A
:100A2000F9E72DE9F04D81EA030404F0004B21F0D1
:100A3000004514464FF0000A23F0004150EA050239
:100A400020D054EA01021DD0C5F30A570246C5F36F
:100A50001303C1F31300C1F30A5640F4801543F4A5
:100A60008013A7EB0608101BD64608F2FD3873EB7F
:100A7000050002D308F1010801E092185B41B8F1CA
:100A8000000F03DA00200146BDE8F08D00204FF48E
:100A90008011064684460EE0171B73EB050705D34D
:100AA000121B63EB050306434CEA010C49084FEAAD
:100AB000300092185B4150EA0107EDD152EA030081
:100AC00012D082EA040083EA0501084305D0101B16
:100AD000AB4106D20122002306E000224FF0004382
:100AE00002E06FF0010253101AEB06004CEB0851C4
:100AF00010EB0A0041EB0B01BDE8F04D00F0EDB842
:100B00000EB540F2334202920022CDE90022134694
:100B100000F0F2F803B000BDC1F30A52C1F31301B3
:100B200040F2FF3341F480119A4202DA002001467C
:100B3000704740F233439A42A2F2334202DC5242FF
:100B400000F05EB8FFF72DBE30B5041E71F1000451
:100B500004DB4FF00044404264EB0101141E73F1CA
:100B6000000405DB1C464FF00043524263EB0403D4
:100B7000994208BF904230BD01F0004330B421F0EB
:100B8000004150EA010206D00A0DA2F56072C1F3DD
:100B90001301002A02DC30BC00207047440F44EAF5
:100BA000C104C100E01830BC00EBC25000F05EB8D8
:100BB000064C074D06E0E06840F0010394E80700AA
:100BC00098471034AC42F6D3FFF7E2FA005A000817
:100BD000405A0008094910B508784C1C18B1401E4D
:100BE0000870205C10BD00210720ABBE207010BD36
:100BF00002490878421C0A70704700000800001083
:100C0000202A04DB203A21FA02F00021704721FA61
:100C100002F3D040C2F120029140084319467047C8
:100C2000202A06DBCB17203A41FA02F043EAE073B0
:100C300006E041FA02F3D040C2F12002914008439D
:100C400019467047026811441378016018467047CE
:100C5000D1600449516104491162002111611146BA
:100C600000F09EB8450C0008950D00080029A8BFAB
:100C70007047401C490008BF20F00100704710B4C5
:100C8000B0FA80FC00FA0CF050EA010404BF10BC7A
:100C9000704749B1CCF1200421FA04F411FA0CF1A7
:100CA00018BF012121430843A3EB0C01CB1D4FEAE0
:100CB00000614FEA102042BF002010BC704700EBDB
:100CC000C35010440029A4BF10BC7047401C490009
:100CD00008BF20F0010010BC704710B5141E73F15E
:100CE000000408DA401C41F1000192185B411A43EC
:100CF00001D120F0010010BD2DE9F04D92469B4638
:100D000011B1B1FA81F202E0B0FA80F220329046DD
:100D1000FFF747FD04460F4640EA0A0041EA0B018F
:100D200053465A46084313D0114653EA010019D0DE
:100D3000C8F140025046FFF763FF05460E46504695
:100D400059464246FFF72DFD084305D0012004E037
:100D500020463946BDE8F08D0020054346EAE0769E
:100D60002C4337430A986305E40AA0EB08000022ED
:100D7000FD0A44EA47540A3002D500200146E9E75B
:100D8000010510196941DDE9084500196941BDE80F
:100D9000F04DA2E7C0B24FF4F05100F097B9000057
:100DA0002DE9F34F8BB04FF0000801F10C000C4619
:100DB0004FF0010B46460DF1080A019062690121CE
:100DC00001989047051E2DD0252D2CD0216A8847EB
:100DD000C0B16269012101989047216A88470028C3
:100DE000F7D1411E62690198904700E0761CA16925
:100DF0000B988847216A88470028F7D1E1690B984A
:100E00008847DBE7A1690B9888470746A84201D1CC
:100E1000761CD3E7E1690B9888477F1C02D1B8F1B3
:100E2000000F6FD046E1002762693D4639460198C0
:100E300090472A2804D16269012101989047012531
:100E4000DFF884926269012101989047A0F1300196
:100E50000A290AD24F45E5DC07EB870100EB410781
:100E6000303FDFD445F01005ECE7E90601D46FF020
:100E700000476C280AD04C2814D0682815D06A285E
:100E80000DD074281CD07A281AD01DE06269012187
:100E9000019890476C2802D045F0040514E045F015
:100EA00002050DE045F020050AE062690121019884
:100EB0009047682802D045F0080505E045F4006534
:100EC0006269012101989047C4E9015765283DD026
:100ED00019DC58287AD00CDC452837D004DC2528CA
:100EE00026D0412831D131E046282FD047282CD1B7
:100EF0002CE05B2877D0612828D063287CD0642838
:100F000023D15AE0D0E06F2848D008DC66281DD0F5
:100F100067281BD0692821D06E2816D127E07028B9
:100F200045D0732868D0752847D078280DD14DE07A
:100F3000A1690B988847054625283FF469AFE16908
:100F40000B9888476D1C3FF46AAFB3E023466A46AE
:100F50006FF001000B99FFF7C1FA9EE045F04000E9
:100F60006060A80723464FF0000236D43EE0E80751
:100F70007FF447AF2068011D21600068290501D575
:100F800006701BE7290701D5068017E7A90703D5D7
:100F9000F117C0E9006111E706600FE745F0400076
:100FA0006060A80723464FF0080216D41EE040F602
:100FB0000E0125EA0100606016E045F04000606027
:100FC000A80723464FF00A0207D40FE045F040007F
:100FD0006060A80708D5234610226FF001000B9926
:100FE000AFF3008059E007E0234610226FF00100C4
:100FF0000B99FFF739F950E04FF000094F464B4687
:10100000632802D05B2806D040E0E80601D4012026
:10101000A06001273AE062690121019890475E28AB
:1010200005D14FF00109626949460198904721694D
:1010300039B900210A46534643F82120491C0829A2
:10104000FADBB0B3216969B9C11700EBD162531162
:101050000AEB830122F01F02821A01200B689040E4
:1010600003430B6062690121019890475D28E8D134
:10107000B9F1000F09D00020514651F82020D24389
:1010800041F82020401C0828F7DB02AB22460097DD
:101090006FF001000B99AFF3008000280CDA401CC0
:1010A00008D1BBF1000F05D04FF0FF300DB0BDE807
:1010B000F08FFFE74046F9E7E90701D108F10108A1
:1010C00006444FF0000B79E6CCCCCC0C7F2801D93C
:1010D000002208E0064A02EB5002C007127800D155
:1010E000120902F00F0201209040084070470000F2
:1010F000E04300080EB540F2334102910021CDE9F2
:1011000000110A460B46FFF7F7FD03B000BD70B5AE
:101110008C1810F8015B15F0070301D110F8013BA2
:101120002A1106D110F8012B03E010F8016B01F829
:10113000016B5B1EF9D12B0705D40023521E0DD481
:1011400001F8013BFAE710F8013BCB1A921C03E0CF
:1011500013F8015B01F8015B521EF9D5A142D8D307
:10116000002070BDFEE77047EFF3108072B6FEE717
:1011700040F2C0510130C1F200014A694B699B1A2B
:101180008342FBD37047B0B540F20C014FF47A7341
:10119000C1F200014A68B2FBF3F20023013AB3EB5B
:1011A000126F24D14EF21004F025CEF200046260DA
:1011B0004EF60C52CEF20002D575A36007230F281D
:1011C000236014D813684FF0FF35C3F30223DC1EED
:1011D00083F0070338BF0024042B28BF042305FA3B
:1011E00003F320EA0303A3401B01D3750860B0BDDD
:1011F00040F20C0041F2040144F27842C1F20000D6
:10120000C4F20201C0F6000240680968C1F302217D
:10121000515CC840704710B541F2040141F2002012
:10122000C4F20201C0F27A000A6802F00C03082B33
:101230000ED144F24844C2F38343896AD203C0F614
:101240000004E35C05D440F60010C0F23D005843B2
:1012500010BD44F2584201F00F01C0F60002515C8B
:10126000B0FBF1F0584310BDFEE7FEE7FEE7224673
:101270006FF07E43C1F20005284600F014B87047B5
:10128000704740F2C050C1F2000041690131416134
:1012900070474EF68850CEF20000016841F47001AC
:1012A00001607047704770B540F2C0550468C1F2E4
:1012B0000005E6690E408E4211D06E69B61A9E4254
:1012C0000FD826687607F4D5E66936070BD4E669A9
:1012D0003605EED5032120224FF4006306E00021FD
:1012E00030E003212EE00121082308222362036855
:1012F00053E8003F046823F4907344E80035002D60
:10130000F5D1036853E8023F046823F0010344E881
:101310000235002DF5D1036E012B09D1036853E886
:10132000003F046823F0100344E80035002DF5D198
:101330002023C0F8803000230366836680F878306D
:10134000C0F88420084670BDFEE710B540F2C054D6
:10135000C1F20004E3685860226951601946A06830
:1013600002F0CFFB012804BF002010BDA06802F0EE
:1013700011FB000A10BD2DE9FC4140F280640025FC
:10138000C1F20004D4F88000202856D1222040F277
:10139000C051C4F88450C4F8800001202566C1F211
:1013A0000001A4F85800D1F81480A4F85A00A068ED
:1013B00098B1B0F1805F16D00DF10707B0F5805FEE
:1013C00018D12069FF2500281CBF384600273E465B
:1013D00008BF40F2FF1507460DE020697F25002871
:1013E00008BFFF2504E020693F25002808BF7F25AE
:1013F0000DF107070026A4F85C50B4F85A00B8B104
:101400002046202142464FF6FF73FFF74CFF78B984
:101410002068808C284017B107F8010B02E026F8FD
:10142000020B0027B4F85A000138A4F85A00E4E788
:101430002020C4F880009DF807502846BDE8FC81B4
:10144000F8B540F280640090C1F20004E06F2028FB
:1014500040D10026212040F2C051C4F88460E067EA
:101460000120C1F20001A4F850004D69A4F8520017
:10147000A068216980F4805050EA010768460CBFDB
:1014800006460746B4F85200C0B1204680212A46DD
:101490004FF6FF73FFF707FFD0B9206817B117F8B1
:1014A000011B04E036F8021B00276FF35F21018562
:1014B000B4F852000138A4F85200E3E740F280602B
:1014C00040212A464FF6FF73C1F20000FFF7EBFE02
:1014D0002020E0670098F8BD18B54EF2100240F2E7
:1014E000C053CEF20002C1F200031068586951687F
:1014F000946801310C1B00941468E40303D5586907
:1015000092688A1A0092009B4FF47A725343B3FB9D
:10151000F1F100FB021018BD96B042F20006002067
:101520004EF60C554FF6FF010390C4F20206CEF2C0
:101530000005306840F0100030602868084040F234
:101540000031C0F2FA51084328600020FFF71BFE6B
:1015500041F2040440F2C058C4F20204C1F200088F
:10156000606940F001006061606900F00100049072
:101570000498A06940F08050A061A06900F08050FC
:1015800004900498206810F00C0F40F20000C4F2A0
:10159000422007D0216801F00C01082942D12168BE
:1015A000C9033FD454F8041C54F8041C102262F3FD
:1015B000C70144F8041C216801F00C0108293FD13F
:1015C000206800F47410B0F5601F5AD1306810F034
:1015D000060F0AD13068022161F3020030603068E2
:1015E00000F00700022840F01E81206820F0F00083
:1015F000206054F8040C800140F11581206802211C
:1016000061F3010041F288312060D8F814002268AB
:1016100002F00C02082A38D0D8F81420121A8A4294
:10162000F5D900E101210160D8F8141054F8042C18
:101630009207B9D4D8F81420521A022AF6D920E019
:1016400000210166D8F8141054F8042C920105D535
:10165000D8F81420521A022AF6D912E0216821F48F
:10166000741101F56011216001210166D8F81400A0
:1016700054F8041C8901A9D4D8F81410091A0229B5
:10168000F6D9EFF3108072B6FEE7306800F007007D
:1016900003280AD33068022161F302003060306809
:1016A00000F00700022840F0BE802068042161F3AA
:1016B0000A202060206820F460502060FFF7ABFD16
:1016C000216844F2684240F20C09C0F60002C1F2FF
:1016D0000009C1F30311515CC840C9F80400D9F8EE
:1016E0000000FFF750FD2069002206F5805140F40C
:1016F00080002061206900F4800004900498206933
:1017000040F4003020610120C8E90F22A8F82C2005
:10171000C8F82810C8F84800216901F40031049184
:10172000049998F8451051B988F84420216941F08E
:1017300040012161216901F04001049104990221D5
:1017400041F6B75340F2806A4FF4807C88F8451028
:1017500043F20801C0F2C143C1F2000AC4F202011F
:10176000CB600B6823F018030B604FF0FF338B60E6
:101770000B6823F060030B600B6823F080030B60A1
:1017800088F845004FF0805141F28833A06940F05D
:101790000100A061A06900F001000490049828688D
:1017A0004EF20010CEF2000080F81C2301604FF0D2
:1017B0008040016821F45C7101600421C4F20001E1
:1017C0008B6209234B620B6943F001030B610368D1
:1017D00043F0800303604BF6F8734868CFF6FE735E
:1017E000184044F200434860C4F20003086820F047
:1017F00070000860486820F0800048600C204FF4BA
:10180000E131CAE90822CAE90222CAE906C2CAE9E4
:101810000031CAE90420DAF87C1041B1002100242B
:101820000026002578E0EFF3108072B6FEE7002274
:10183000042340F2200B4FF090414FF000094FF08D
:10184000000C07268AF87820C4F60003C4F6000BC3
:10185000A06940F40030A061A06900F40030049059
:101860000498206940F400302061206900F40030C1
:1018700004900498BCF1100F3AD0012000FA0CFE3D
:1018800048F206001EEA000F2CD00320D3F804A073
:101890000F2400FA02F848EA0A005860186820EAA3
:1018A0000E001860986820EA0800986009F01C0093
:1018B00004FA00F76FF0030406FA00F004EA5C048F
:1018C00054F80B50BD430227284344F80B0007FA95
:1018D00002F00C6824EA080440F2C058C1F2000883
:1018E00020430860023209F104090CF1010CC1E740
:1018F00040F2806A40F20C0944F20043C1F2000A4F
:10190000C1F20009C4F20003DAE90251DAE9046025
:10191000DAE906C4DAF820202427354346F6F31620
:10192000CAF87C702843CEF6FF761F6827F00107BF
:101930001F601D683540284320431860586820F414
:1019400040500843586042EA0C00996821F4306125
:1019500008439860FFF74CFCB4F5004F15D128B34D
:10196000DAF804104A0802EB40004FF6EF72B0FBC1
:10197000F1F0A0F11001914200F202834FF6F071F4
:101980000140C0F3420008440DE078B1DAF80410D9
:101990004FF6EF7200EB5100B0FBF1F0A0F1100137
:1019A000914200F2ED82DAF80010C860DAF82410F3
:1019B0000020CAE91A00002961D0CA0708D0DAF865
:1019C0000020DAF82830546824F4003423435360AC
:1019D0008A0708D5DAF80020DAF82C30546824F4A5
:1019E0008034234353604A0708D5DAF80020DAF838
:1019F0003030546824F48024234353600A0708D508
:101A0000DAF80020DAF83430546824F40044234330
:101A10005360CA0608D5DAF80020DAF8383094683E
:101A200024F48054234393608A0608D5DAF8002012
:101A3000DAF83C30946824F40054234393604A0657
:101A400012D5DAF80020DAF84030546824F4801413
:101A50001C43B3F5801F546006D1DAF84430546853
:101A600024F4C00423435360090608D5DAF80010B3
:101A7000DAF848204B6823F400231A434A60DAF866
:101A800000104A6822F490424A608A6822F02A02D2
:101A90008A600A6842F001020A60CAF88400D8F835
:101AA00014400868000708D540F280654FF4001123
:101AB000FFF7DDFB002854D129680868400707D5E7
:101AC00040F280654FF48001FFF7D1FB002855D12B
:101AD00040F2244B202005210123CAF87C00CAF8DB
:101AE00080000020C2F2000BCAF860008AF878007B
:101AF000CAF86400CDE9001008F1080000215A4638
:101B000001F0C4FE0546000640F0168144F2204074
:101B1000C0F60000D0E90001CDE9140144F22840EC
:101B2000C0F60000D0E90001CDE9120104AC12A911
:101B300014AA204601F030FE002800F0F88004F1DD
:101B40000C0640F6E0740027C2F20004BDF81E0047
:101B5000874230D230463946224601F067FC0137D1
:101B6000F4E7286850E8001F284650F87C2B21F045
:101B7000800142E80013002BF3D115E0286850E8FB
:101B8000000F296820F4907041E80002002AF5D186
:101B9000286850E8021F284650F8802B21F00101E8
:101BA00042E80213002BF3D100218AF8781020219B
:101BB0000160FFF7D9FAD8F808A004A9504601F04F
:101BC000F7FE002800F0B38040F2C056074604AA92
:101BD0000121C1F20006304601F018FE40F20C0867
:101BE00040F2840400280290C2F20008C1F200040E
:101BF00062D0D8F810103068D8F82020D8F84030DB
:101C0000B446D8F8506041F0804142F0804243F041
:101C10008043C8E91200C8F8101000F13001C8F87C
:101C2000202000F51872C8F8403046F08043664620
:101C3000C8E9061100F1D001C4E9162200F51E72B0
:101C4000C8F8503000F12803C8E90A11216CE2609D
:101C500000F5CF62C8E91633A260226941F08041E5
:101C6000216400F1E001C4E91211216D41F08041CD
:101C70002165216841F08041216041F2B841014471
:101C8000C4E9061142F08041D9F83820216141F2BF
:101C9000D8410144C9E9101142F08041C9F8381017
:101CA00041F218510844D9F84810C9E9140041F02C
:101CB0008040C9F8480004E038463021122201F083
:101CC0004AFF301D04AA012101F08AFD3146064673
:101CD000E8B1486800F6B811C8E90E00C4E91A0076
:101CE000C4E90A00C9E91800C9E90800C9E90411F2
:101CF000C8E9021100F51A61C4E90E1100F5E461AA
:101D0000C9E91C1100F12001C9E90C1104E03846B1
:101D10003021132201F01FFF40F2C0585046C1F29B
:101D2000000801F0CBFE02993040014204D1D8F8FE
:101D3000080001F02FFE0546280619D1D8F8080042
:101D400040F20014CAF2C01410B95846CBF8004053
:101D5000002101F06FFDC8F80C00D8F8080010B998
:101D60005846CBF80040002101F0FBFEC8F81000F7
:101D700008F1180045F6E31ABFEE009ABEEE00AA7D
:101D8000B6EE00BA0DF1100840F6C41502904FF0FF
:101D90004050C0F6000A08EE100A45F6F710C0F6EB
:101DA000000000F023F900270024012F25D04FF078
:101DB000000B40F2E14083451DD80BF001090120E2
:101DC0002646C00714D050464146FEF73DFAB9F109
:101DD000000F0CD142F25C30049A21B20134C2F2FD
:101DE000000007FB050040F821200020E9E7344609
:101DF0000BF1010BDDE70137D7E70120FFF7B8F959
:101E0000FFF76AFB064642F25C300299C2F200001C
:101E1000FFF79BFAFFF760FB044645F6F410C0F6A7
:101E2000000000F0E3F80120FFF7A2F945F6E0100A
:101E300003A9C0F60000FEF707FA0398C82831D1BD
:101E40002046FFF757F9074630460C46FFF752F990
:101E500002460B4638462146FEF76BFD48F28043AA
:101E60000022C4F22E13FEF7DCFD024640F2C05001
:101E700045F6E613C1F20000C0F6000390ED060A35
:101E800090ED071A45F6ED10C0F60000B4EE410AD9
:101E9000F1EE10FAC8BF18460B4600F0A7F81E2056
:101EA000FFF766F940F2C05001244FF01409C1F267
:101EB0000000C068006800F07F01C0F3C61300F4A2
:101EC000F017A1F1400204FA02F200EE102A020219
:101ED00003EBE272B8EE40CA511A403104FA01F144
:101EE00000EE101AB8EE40DAB9F101093FF455AF2F
:101EF00040F2186B6FF41C74C2F2000B8CB3FEF747
:101F00005FF900EE100AB7F5003FB8EEC00A30EEF8
:101F1000001AB0EE490A01EE080A02D18BED000A60
:101F20001BE020EE0D0A40F2186120EE0C0AC2F20E
:101F30000001B5EE400A30EE0B2A30EE0A1A2144B9
:101F4000F1EE10FAB8BFB0EE412ABDEEC20A10EEB3
:101F5000100A00F3070081F8710201340BF1040B41
:101F6000CCE740F2C050C1F2000000F1200140F285
:101F70001860C2F20000FFF7E8F90028B4D00CE7BF
:101F80000020CAE91A00FFF7EFF8000010B500F0D2
:101F900032FA11490968114BC1F30221104A012498
:101FA00004290BD00F490C600C68002CFCD10D49A2
:101FB00008390B60096891420AD0FEE70A498C6033
:101FC0008C68002CFCD10B600968914200D0FEE7C0
:101FD00000F084FA10BD0000002004E0C2A507F460
:101FE000CDB5E8B5084C0258003002400FB4054B9F
:101FF00010B503A9044A029800F0C2FD10BC5DF8B8
:1020000014FB000041140008000000109FED3C0A82
:1020100063E000BF92ED003A91ED004AD2ED012A53
:10202000D1ED013A04EE030A92ED022A91ED021A73
:10203000D2ED030AD1ED031A91ED044A03EEA20A90
:10204000D2ED043A92ED053AD1ED052A01EE020AED
:1020500092ED062A92ED071A01EEA00AD1ED061ABA
:10206000D1ED070A04EE230AD2ED083A91ED084AB1
:1020700002EE830AD2ED092A91ED093A01EE820AB5
:1020800092ED0A2AD1ED0A1A00EE810A92ED0B1A9E
:10209000D1ED0B0A04EE230A91ED0C4AD1ED0D3A75
:1020A00003EE220A92ED0C3AD2ED0D2A01EE820ADD
:1020B00092ED0E2AD1ED0F1A00EE810A91ED0E1A63
:1020C000D2ED0F0A40314032103B04EE030A03EE1A
:1020D000A20A01EE020A01EEA00A102B9AD206E033
:1020E000F1EC010A5B1EB2EC011A00EE810A002B32
:1020F000F6D1D0ED000A30EE800A80ED000A70477C
:102100000000000030B528B1144C031F00202168E6
:102110000A4605E0084630BD9A4203D81046526888
:10212000002AF9D1002800D041680BD00468A3EB45
:102130000005A54204D11B681C440346046002E06C
:10214000436000E023603AB11C68D51AA54203D170
:1021500015682C441C6052685A6030BD080000208D
:102160002DE9F04782460F4C10480D4E0E4F001BD4
:102170004FF0000820F007054FF00109002211463A
:10218000504602F087F8002802D1306810B10020D4
:10219000BDE8F0873C60C4E90058C6F80090EDE760
:1021A00004000010242D002008000020202F002013
:1021B00002E008C8121F08C1002AFAD17047704710
:1021C000002001E001C1121F002AFBD1704700006E
:1021D000F0B5059D25F0010403EB84069FED460A4A
:1021E000EF085AE051F8044BD3ED002A04F0FF0C3D
:1021F0004FEA1C1E02EB8E0E0CF00F0C9EED002A17
:1022000002EB8C0C02EE220ADCED001A93ED012A9F
:10221000C4F3072C4FEA1C1E02EB8E0E01EE820A5D
:102220009EED001AD3ED021A0CF00F0C02EB8C0C91
:10223000D3ED042A01EE210ADCED000A93ED031A26
:10224000C4F3074C4FEA1C1E02EB8E0E00EE810A0F
:102250009EED002A0CF00F0C02EB8C0C240EDCED32
:10226000001A02EE220A93ED052A4FEA141C02EB33
:102270008C0C04F00F049CED001A01EE820AD3EDE1
:10228000061A02EB8404D4ED000A01EE210A93ED54
:10229000071A20337F1E00EE810A002FA2D115E01D
:1022A00011F8014B93ED001A270902EB870704F0A0
:1022B0000F04D7ED000A02EB840400EE810AD4ED8E
:1022C000000A93ED011A083300EE810AB342E7D306
:1022D000EC0709D0097893ED001A090902EB810196
:1022E000D1ED000A00EE810AD0ED000A30EE800A3E
:1022F00080ED000AF0BD000000000000F0B59FED89
:10230000380A059DEE0851E051F8044BD3ED002A40
:10231000E7B202EB8707D7ED001AC4F3072702EBF9
:10232000870701EEA20A97ED002AD3ED011AC4F344
:10233000074702EB8707240E02EE210A97ED001AE9
:10234000D3ED021A02EB8404D3ED042AD4ED000A83
:1023500001EE210A93ED031A51F8044BE7B202EBA8
:10236000870700EE810A97ED002AC4F3072702EBE6
:102370008707D7ED001A02EE220A93ED052AC4F36F
:10238000074702EB8707240E97ED001A01EE820A39
:10239000D3ED061A02EB8404D4ED000A01EE210A03
:1023A00093ED071A2033761E00EE810A002EABD182
:1023B00005F007040BE000BF11F8015B641E02EB9F
:1023C0008505B3EC011AD5ED000A00EE810A002C58
:1023D000F2D1D0ED000A30EE800A80ED000AF0BDA7
:1023E0000000000010B54169044688472069A042FA
:1023F00000D1002010BD0120704700002DE9F04FF2
:10240000002699B00F4605463446B0464CE0A86811
:10241000C4EBC4038946426802EB83020E928068D3
:1024200010AA00EBC40A2C480D9251F8082F406AFC
:10243000120A62F31F200190D1F804B01C2105A8F4
:10244000FDF7E9FED9F81800006800F05BFF059081
:10245000D9F81800806806905FEA0A0009D0C0F831
:102460000080D9F80010416029B1498819B10121D3
:1024700002E0404603E00021016001B9002007901E
:10248000D9F818001C2205A9406809900198CDE9E7
:102490000A0B0D98FDF7A6FE1C2210A90E98FDF759
:1024A000A1FE761CB6B2641C0DB1288800E00020A5
:1024B000A04205D9686818B150F824100029A6D1A7
:1024C0001EB1A8684068386001E0C7F8008019B004
:1024D0003046BDE8F08F00007443000870470000EC
:1024E000D3ED021A93ED000A93ED011AF5EEC01A2E
:1024F00001EB8203F1EE10FA00EB82002AD2B5EE76
:10250000C01AF1EE10FA11D0001F1B1F8B4220D30E
:10251000D3ED000AF4EEC00AF1EE10FA03D870EE23
:10252000C00A60EE810AC0ED000AEDE79FED161AC1
:102530000BE000BFD3ED000AF4EEC00AF1EE10FA92
:1025400001D8F0EE410AC0ED000A001F1B1F8B42AC
:10255000F0D27047001F1B1F8B42FAD3D3ED000A45
:10256000F4EEE10AF1EE10FA09D8F4EEC00AF1EE49
:1025700010FA06D870EEC00A60EE810A01E0F0EEB3
:10258000610AC0ED000AE5E700000000D3ED000A93
:102590009FED0B1A01EB820300EB8200001F1B1F53
:1025A0008B420BD393ED000AB4EEE00AF1EE10FA81
:1025B00001D8B0EE410A80ED000AEFE77047000055
:1025C000000000002DE9FF5F82B00021DDE904304A
:1025D000020DDDF840B0034318D044F61050A2F2CB
:1025E000FF3242431514119801281FD0A5EB0B00B0
:1025F000401C5FEA000A4FF000064E4FDFF83891AA
:10260000B046504615D5CAF1000413E011980124D4
:102610004AA3012801D16FEA0B010298119AC0E97F
:102620000031C0E9024206B0BDE8F09FCBF10000E6
:10263000DFE704460021404A491842EB0450CDE947
:10264000001012E0E00707D032463B4640464946BC
:10265000FEF775F98046894632463B4610461946D4
:10266000FEF76DF906460F466410002CEAD1DDE94D
:102670000401DDE90023BAF1000F06DAFEF75FF985
:1026800042464B46FEF75BF905E0FEF7CAF94246C3
:102690004B46FEF7C6F904460E460022284BFEF7CD
:1026A00053FA03D84FF0FF30014607E00022254BD4
:1026B00020463146FEF79CF8FEF72EFA102409E07A
:1026C000002C0ADB0A220023FEF73AF8039B303283
:1026D0001A55641E50EA0102F2D1641C039AC4F137
:1026E00011031444119A012A03D0012208430DD189
:1026F0000AE0084304D000204FF0110B119072E75C
:10270000A3EB0B056D1E0DE05B4504DD4FF00002F1
:1027100005F1010504E003DA4FF00002A5F101051F
:10272000002AECD002981199C0E90231C0E90045B5
:1027300079E70000000014400000F03F3000000086
:102740000000F0430000E03F30380A2801D20120A9
:10275000704700207047000070B505460C46488859
:102760006988884202D9AAB1002070BD92B10026C2
:102770000CE000BF6168C6EBC6006A6801EB80012F
:1027800002EB80001C22FDF72DFD761C6088B04214
:10279000F0D801E0606868606088688020882880E0
:1027A000012070BD30B500B3F9B1F2B15268E2B1A9
:1027B0000F4C1368A34203D00260012913D014E028
:1027C0000023121D07E000BF52F82350A54204D099
:1027D00040F823505B1C8B42F6D38B4205D152F854
:1027E0002300A04201D1012030BD002030BD0000F7
:1027F000DECAFAA170B50D46060014461AD0CCB157
:10280000104600F025FE00B16088A84212D10023D6
:10281000042109E0C3EBC302606801EB8202805827
:1028200020B146F823005B1CAB42F3D3AB4201D18D
:10283000012070BD002070BD0349884201D10120F4
:102840007047002070470000DECAFAA12DE9FE4F54
:1028500092468946040003D0A08D20B1256B03E089
:102860000020BDE8FE8F00250020E082A082207BB2
:10287000C043800702D030221121DCE0B9F1000F03
:1028800061D0D5B32888C0B3D9F818000026D0F895
:10289000008056E0A868006800EB0610019052D056
:1028A00058B3C6EBC600029009EB800001210090EE
:1028B00000F0D8FDDBF81830596888421AD8009823
:1028C000DBF80C208069D768D0F80CC0674511D1BF
:1028D0009768D0F808C067450CD1526840688242BA
:1028E00008D1186800F0FEFC0746584601F0BEFC0F
:1028F000874203D2182212219DE024E0DBF8180061
:10290000006800F0FFFC029920F07E4259F8210097
:1029100020F07E40824201D01922ECE70098406806
:1029200088B100988069006878B14146404500D27E
:1029300008468046DDE900105A4600F08FF8761C04
:102940002DB1288804E01722D5E72122D3E7002003
:10295000B04206D9686820B150F826B0BBF1000F2C
:1029600098D1BAF1000F74D0A08D012806D9256B3B
:102970000C3503D0288808B1002658E0182259E009
:10298000A868006800EB061B3BD0BBF1000F38D0F5
:10299000C6EBC60001900AEB80000121009000F018
:1029A00061FDD9F8183059688842E7D80098D9F8FD
:1029B0000C208069D768D0F80CC06745DED19768D5
:1029C000D0F808C06745D9D1526840688242D5D155
:1029D000186800F087FC0746484601F047FC87422C
:1029E000CCD3D9F81800006800F08CFC20F07E42AF
:1029F00001985AF8200020F07E40824203D019222C
:102A000018E0172216E0009840680028F9D00098D6
:102A10008069006868B14146404500D2084680465A
:102A20004A465846009900F019F8761C3DB12888AE
:102A300006E021221321204601F08DF810E7002046
:102A4000B04206D9686820B150F82690B9F1000F5D
:102A500096D1A4F814804FF0010002E770B5044647
:102A60000E461546104601F001FC0146A060B06913
:102A700000684843E06071686160726810442060DB
:102A8000A8690268920007D4D0E90223D21A11443F
:102A90008160A9696068C86070BD70B50646002590
:102AA00021E0B068006800EB0514886902689200B4
:102AB00005D58168A268606801F014FC08E0D0E9DF
:102AC0000223D21A63681A44826089696068C86008
:102AD000D4E90101084460602168884201D3E068BC
:102AE000081A6D1C60600EB1308800E00020A8421A
:102AF00006D97068002803D050F825100029D0D1DD
:102B000070BD2DE9F0410646002529E0B1688369D2
:102B1000096801EB051419688900D4E901120DD583
:102B2000986801F0DFFBD4E9010108446060216886
:102B3000884201D3E068081A606010E00A446260CD
:102B400021688A4201D3E2688A1A62608169D1E908
:102B50000237DB1B1A448A6080696168C1606D1CA2
:102B60000EB1308800E00020A84206D97068002825
:102B700003D050F825000028C8D1BDE8F08100003E
:102B80002DE9FF4F95B09B468946064600250FE28A
:102B9000252877D100242746F84A0121059400E032
:102BA000044316F8013F203B01FA03F01042F7D12D
:102BB00030782A2811D06FF02F033078A0F130023E
:102BC000092A16D8059A44F0020402EB820203EBAC
:102BD00042021044761C0590EFE759F8042B059249
:102BE000002A03DA504244F40054059044F00204F1
:102BF000761C30782E2816D116F8010F44F0040404
:102C00002A280DD06FF02F023078A0F13003092B65
:102C100009D807EB870302EB4303C718761CF3E7D9
:102C200059F8047B761C30786C280FD006DC4C28D1
:102C300017D068280DD06A2814D104E0742810D069
:102C40007A280FD10DE044F400140AE044F4801413
:102C500001E044F440147278824202D104F58014F9
:102C6000761C761C307866280BD013DC582877D079
:102C700009DC002875D04528F6D04628F4D047282E
:102C80001AD19DE118E0632835D0642879D06528F1
:102C900012D195E1702873D008DC6728F1D069283B
:102CA0006FD06E280DD06F2806D1B5E073282CD0D8
:102CB000752875D0782874D05A46179990476D1C9E
:102CC00075E1C4F30250022809D003280DD0D9F8C9
:102CD000001004280DD00D6009F1040967E1D9F84E
:102CE0000010EA17C1E90052F6E7D9F800100D808C
:102CF000F2E70D70F0E719F8041B8DF800100020C2
:102D00008DF80100EA46012003E059F804AB4FF0CA
:102D1000FF3061074FF0000102D40DE008F101011E
:102D20008846B9420FDA8045F8DB1AF80810002906
:102D3000F4D108E008F1010188468142FADB1AF873
:102D400008100029F6D105985B46A0EB080721463C
:102D50003846179A00F094FA284400EB080507E07B
:102D60004DE029E10DE01AF8010B5A4617999047FA
:102D7000B8F10108F7D25B4621463846179A13E1AD
:102D800042E00A220092C4F302524FF0000A022AE3
:102D900008D059F804CB032A4FEAEC710AD00DE0B1
:102DA00029E02AE009F1070121F00702F2E802C157
:102DB000914609E00FFA8CFC4FEAEC71042A03D12A
:102DC0004FFA8CFC4FEAEC71002907DA0A46002121
:102DD000DCF1000C61EB02012D2202E0220504D59A
:102DE0002B228DF80420012203E0E20701D02022EB
:102DF000F7E7904659E00A2102E010220DE0102189
:102E00004FF0000A00910BE010224FF0000A44F04E
:102E100004040827009203E008224FF0000A009201
:102E2000C4F30252022A05D059F804CB0021032A28
:102E300008D009E009F1070121F00702F2E802C118
:102E4000914605E01FFA8CFC042A01D10CF0FF0C1E
:102E50004FF00008220728D5702806D0009B83F089
:102E6000100353EA0A0305D00EE040228DF8042037
:102E7000012208E05CEA010206D030228DF804202D
:102E80008DF8050002229046009B83F0080353EA68
:102E90000A030AD15CEA010201D1620705D530229A
:102EA0008DF804204FF001087F1E582804D034A06C
:102EB00003900EA802900DE036A0F9E75346604655
:102EC000009AFDF73DFC84460398825C0298401E00
:102ED000029002705CEA0100F0D1029806A9081A7B
:102EE00000F1200A600702D524F4803400E00127B5
:102EF000574502DDA7EB0A0000E0002000EB0A01C5
:102F0000009005984144401A0590E00306D45B46C2
:102F10002146179A059800F0B3F90544002706E00A
:102F200001A85A46C05D179990476D1C7F1C474504
:102F3000F6DBE0030CD55B462146179A059800F0B6
:102F40009FF9054404E030205A46179990476D1CBC
:102F50000099481E00900029F5DC08E002980299CB
:102F60005A460078491C0291179990476D1CBAF196
:102F70000001AAF1010AF1DC65E100000928010065
:102F800030313233343536373839616263646566DF
:102F900000000000303132333435363738394142A1
:102FA000434445460000000000F058F90544761CF3
:102FB000307800287FF4ECAD19B02846BDE8F08FDA
:102FC000620700D4062709F1070222F0070CFCE88B
:102FD0000223E14603F000485FEA080C02D00FF23A
:102FE000702C0DE05FEA045C02D50FF2682C07E05C
:102FF0005FEAC47C02D00FF2602C01E0AFF2700CEB
:103000004FF0FF3823F00043CDF850C065280CD0B6
:1030100006DC452809D046281DD047283DD13DE093
:10302000662818D067287ED138E00021112F01DBF7
:10303000112000E0781CCDE9000106A90EA8FFF7D9
:10304000C1FADDE90F010E9A03910021009207F108
:10305000010A04914DE04FF000400097CDE90110C6
:1030600006A90EA8FFF7AEFADDE90F0203920E9B48
:1030700011990022DDF80CA00093049211B9791C7B
:1030800000EB010AB7EB0A0004D4C0F1FF3007F1EE
:10309000010A0490AAEB0700019044E0012F00DA36
:1030A00001270021112F01DD112000E03846CDE974
:1030B000000106A90EA8FFF785FADDE90F010E9AB7
:1030C0000391002104910092BA4621070CD4039980
:1030D000514500DA8A46BAF1010F05DD009AAAF1DE
:1030E0000101515C302908D0B84202DA10F1040F16
:1030F00006DA0121CDE9011015E0AAF10101E9E7A5
:10310000002805DC049901440491AAEB000102E0C7
:10311000411C514500DD8A460499401A401C01902B
:103120004FF000400290200704D40198504501DB85
:10313000CDF8048000208DF84F0002980DF14F0764
:10314000B0F1004F25D02B200E9002984FF00208CE
:1031500000280CDA404202902D200E9007E00A2150
:103160000298FDF7D7FA3031029007F8011DB8F147
:103170000001A8F10108F2DC02980028EFD1791EC5
:103180000E980870307800F0200040F0450007F8F5
:10319000020D12A8C01B00F107081498007800B1B6
:1031A000012000EB0A01019801EBE0710598414410
:1031B000401A401E0590E00306D45B462146179A4C
:1031C000059800F05DF805441498007818B15A4647
:1031D000179990476D1CE00324D55B462146179A4A
:1031E000059800F04DF805441CE00498002807DB22
:1031F000DDE90301884203DD0098405C179901E096
:10320000179930205A469047049805F10105401C53
:1032100004900198401E019004D12E205A4617991F
:1032200090476D1CBAF10001AAF1010ADDDC05E04E
:1032300017F8010B5A46179990476D1CB8F1000119
:10324000A8F10108F4DC5B462146179A0598ABE625
:103250002D0000002B000000200000002DE9F041AF
:10326000044600251E461746880404D405E0394666
:103270002020B0476D1C641EF9D52846BDE8F081BA
:103280002DE9F041044600251E469046C80301D5AD
:10329000302700E02027880404D505E04146384661
:1032A000B0476D1C641EF9D52846BDE8F08179B1A0
:1032B000C0F3C6125143C91DC0F3415321F00701A9
:1032C000D940C0F34340042804D0082807D104E0C3
:1032D0000020704701EB021101E001EB0221C91D42
:1032E000C808704759B1C0F3C6125143C91D21F037
:1032F0000701C0F34150C140C91DC80870470020F4
:103300007047000070B54021C0F34342022A1BD031
:10331000394A20F07E439C1A0D014E0193425FD042
:1033200029DC364AA3EB0204934259D019DC402B26
:1033300057D0403BB3F580234CD0802B37D0AB42E5
:103340004FD12E49C91F4CE0C0F3C051C905C0F38D
:10335000C61241EAC21100F07F02114341F48021FC
:103360003FE0A4F54074F93C1FD00F2C35D0B44297
:1033700037D1234935E0234BE21A9C421BD00BDCAA
:10338000214AA2181DD0802A19D0AA4211D0A2F534
:103390008062073A25D117E00F2A18D0B2420CD02C
:1033A0001A4BDA421DD11A491BE01A4919E01A4991
:1033B00017E01A4915E01A4913E01A4911E01A49B1
:1033C0000FE0194980390CE01449C91D09E014497E
:1033D0000F3106E01049803903E00E490F3100E05B
:1033E000114600F080420A4300F00051114300F002
:1033F0000060084370BD000040040600470404005C
:103400004010040000047E00000482FF00F801FF69
:103410004010820140080400C00004004004840001
:103420004008840040108400C000840070B5144639
:103430000D46064600F00CF840B17068C5EBC501BA
:1034400010EB810002D04460012070BD002070BDEF
:1034500028B1416819B1408808B1012070470020A7
:103460007047000010B502002AD0164B1068B3EB6D
:10347000C01F03D0144BB3EBC01F01D1012000E0EB
:10348000002008429069406802D01F3020F01F00E1
:103490005369D9B2012900D000211C0A07E0012993
:1034A00007D0936953F821305843491C1AB1234679
:1034B00002E00123F8E700238B42F0DC002800DC67
:1034C000002010BD006000420060000208B509A1A4
:1034D0000968009148B101789DF80020914204D11B
:1034E00004226946FCF7A2FE08B1002008BD0120B5
:1034F00008BD0000038404842DE9FF4F2DED020B6D
:1035000082B0DDE91609DDE913E800FB08F0584355
:1035100002EB800A0027DDF848B0189CA7E0624261
:10352000002A00DC0022ABEB0405454500D34546EC
:10353000A0180599584301EB800102FB03F0AA1A79
:10354000ABEB02055D430195A8EB02055D430095D9
:103550000AEB800003FB02F5F0EE400A002679E05A
:10356000002225F00F0C62E091ED004AD0ED004AF8
:1035700091ED013A90ED011A44EE840AD1ED023A40
:10358000D0ED022A91ED032AD0ED031A91ED044A01
:1035900041EE030AD0ED044A90ED063A90ED071A89
:1035A00042EEA30AD1ED053AD1ED062A41EE820A98
:1035B00090ED052AD1ED071A44EE840AD1ED084AB0
:1035C00090ED084A42EE230AD0ED093A91ED0A2A1D
:1035D00043EE220A91ED093AD0ED0A2A41EE210A82
:1035E00091ED0B1AD0ED0B1A44EE240A91ED0C4A22
:1035F000D0ED0C4A43EE830A91ED0D3AD0ED0D3A31
:1036000042EE820AD0ED0E2A91ED0F2A41EE810A98
:1036100091ED0E1AD0ED0F1A40304031103244EEC9
:10362000840A43EE830A42EE810A41EE820A9445FF
:103630009ADC06E0B0EC011A521CF1EC011A41EEE2
:10364000210AAA42F6DB019A761C01EB8201009A5C
:1036500000EB82004E4583DB04987F1CC0ED000A1E
:103660001199049800EB810004901998044477455F
:10367000FFF455AF08B0BDE8F08FF0B5042BDDE9DD
:10368000055400EB840427D0082B27D12FE000231A
:103690006E0812E00F783F0902EB870797ED000AEA
:1036A00080ED000A11F8017B07F00F0702EB870796
:1036B00097ED000A80ED010A08301F465B1CB742F7
:1036C000E8D3EB0708D011F8013B1B0902EB830399
:1036D00093ED000AA0EC010AA042D8D3F0BD11F886
:1036E000013B02EB830393ED000AA0EC010AA04228
:1036F000F5D3F0BD2DE9F041C66B416B04460025C2
:103700008163CEB1D9B10120226CB0470CE0022018
:10371000226CB047A06BFEF765FE07460320226CC3
:10372000A16BB0476D1CA763A16B0029EFD106E028
:10373000FEF758FE6D1CA063A06B0028F8D1284648
:10374000BDE8F08103460020596B002908D0CB600A
:103750000A69401C8A4203D0002A01D01146F6E7CC
:1037600070472DE9F041446B002594B101260027F4
:103770002079C00707D0216A204611B1884730461A
:1037800000E0384605442069A04202D008B1044652
:10379000EEE72846BDE8F08110B570B169B162B1BD
:1037A000074C0460D1E90041C0E90141D2E90012AF
:1037B000C0E903120123184610BD002010BD00000F
:1037C000DECAFAA110B518B1044A0168914200D0CE
:1037D00000200446FEF7DAFB204610BD0001C0A120
:1037E00030B44AB140B139B1074C1368A34206D195
:1037F00030BC0C32FEF7FEBF30BC0020704730BC3E
:103800001C32FEF7CFBF0000DECAFAA130B44AB1C5
:1038100040B139B1064C1368A34206D130BC121D29
:10382000FEF7E8BF30BC0020704730BCFEF7BABFDF
:10383000DECAFAA1F8B50E46FFF7C4FF04000AD0AD
:1038400000270097A08D00B1206B6946FEF7D6FDDA
:10385000050006D00BE01022114600F07CF9002094
:10386000F8BD18221121204600F075F9009706B125
:1038700035800098F8BD0000034810B54469FEF794
:1038800085FB204610BD0000744300082DE9F04F71
:1038900089B00646DDE912104FF0000A554663F381
:1038A0000705CDE9011361F30F259046544660F3F7
:1038B00017458346FEF79FFD304F01001CD030486E
:1038C00000680123C0F30220042806D02D481822E6
:1038D00002600268182A13D00BE02B481422836080
:1038E00083680BB1521EFBD1826812B90068401C7C
:1038F0000AD00846FEF7F2FDF86909B0BDE8F08F7E
:1039000003600268002AFCD10846FEF7E7FDFEF7D7
:103910003DFBE6B11D49C8F80010C6F8008000F074
:103920005DF9B0B1FFF7A8FF8146C5F30721E8B202
:10393000002200F047F90546C9F3072109F0FF000E
:10394000002200F03FF9854205D07C680BE0386A20
:10395000D3E73C6807E00EA0006800906846FFF7D8
:10396000B5FD10B9BC68C6F800A0DDE901105A46E3
:1039700000F028F9C8F848002046BEE77443000864
:10398000002004E0084C0258003002400001C0A1B1
:103990000384048410B5FFF715FF20B1BDE8104083
:1039A000103000F015B90148806910BD744300085B
:1039B0002DE9F04F91B00C46FFF704FF050013D03E
:1039C000B4B13BA12068FEF737FF06004FF0000BB3
:1039D00011D020680190D4E90301CDE90401D4E9B4
:1039E0000101CDE9020143E0002011B0BDE8F08FF4
:1039F0001122102158E001212046D4F804A0FFF73D
:103A000031FD804604F11C00D4F820900121109073
:103A1000FFF728FD07461422274906A8FCF7E2FB1A
:103A20000120B8F1000F02D0ADF81E0002E0ADF8A1
:103A30001EB0002408941FB1ADF82600109802E0D3
:103A4000ADF826B000200A90B9F1000F02D10FB1F5
:103A5000132206E0BAF1000F05D1B8F1000F02D031
:103A6000122210211FE0142206A901A8FCF7BAFBBC
:103A700086F00102144602A905F11C00FEF76CFE57
:103A800068B1224604A905F12400FEF765FE40B1A5
:103A90000320E8602846FFF755FE2846A5E71222D6
:103AA00000E013221621284600F055F89CE700009C
:103AB000696E697400000000CC43000870B5FFF720
:103AC00081FE041E08D0207B800706D4102211211D
:103AD000204600F040F8002070BD2046FFF741FE70
:103AE000E06B60B1656B55B1D4E90F322946002017
:103AF00098472869A84202D008B10546F4E701209A
:103B000070BD70B515460E46FFF75CFE04462A46AA
:103B10003146FEF79BFE00281CD0A08D08B1256B16
:103B200000E00025012802D9266B0C360DE00026A6
:103B30000BE02846FEF7B1FF2046FFF7DBFD3046DD
:103B4000FEF7DFFFE08A401CE082E08AA18A88421B
:103B5000EFD380B270BD002802D0103000F040B822
:103B60007047F8B50E46FFF72DFE040007D000277A
:103B70000097A08D012808D9206B0C3006E0102298
:103B80001146FFF7E8FF0020F8BD00206946FEF768
:103B900035FC050005D1182211212046FFF7DBFF77
:103BA000009706B135800098F8BD02460068010A0A
:103BB000012004E05368491E53F82130584300297E
:103BC000F8D17047000640EA014040EA0220704701
:103BD00000220168027002600846704701207047A9
:103BE000037813F0FF0F01D00020704701700168C7
:103BF00062F31F210160012070472DE9F04F8169B8
:103C00009DB00F880FB14A6800E0002252683AB1B7
:103C10000FB14A6800E000225268D2F8008001E04B
:103C20004FF00008012F02D94A680C3200E0002250
:103C300052684AB1012F02D94A680C3200E00022D2
:103C40005268D2F800C001E04FF0000C022F02D9F8
:103C50004A68183200E00022526842B1022F02D9AD
:103C60004A68183200E000225268136800E000231E
:103C7000022F0BD94A6812F1180F07D032F8184FEB
:103C8000012C03D9526812B1526800E00022D8F822
:103C90000C40DCF80C50D4F804A06E681796EE685F
:103CA0000596AD681695E5681B95A4681594048D76
:103CB000A4B21A94848DA4B21994C46B2588ADB2B1
:103CC0000A95A488A4B20294048E1FFA84F9848E03
:103CD000C069A6B2DC68A56864680B90D8F81800C3
:103CE000806814909869D0F808B00AB19269926817
:103CF0001392DCF81820731E4FF0000C9268129299
:103D00006A1E02FB03521192631EA9F1010203FB1A
:103D100002420E920268C2F3C613C2F3415823FA5C
:103D200008F3C2F34342042A01D0082A24D1C2680E
:103D300012B3032F02D94868243000E00020406805
:103D400078B1032F02D94868243000E00020406891
:103D5000D0F800C0BCF1000F03D0DCF81800876871
:103D600000E00027DCF8180059464068CDE900A0C3
:103D70003846FFF782FC07B95F460B990E9BCDE9E9
:103D80000F61CDE90D39DDE919310DF124080A98EB
:103D9000119E88E84B0002990694CDE90751DDE9B0
:103DA0001530179C1B99CDF800A0CDE90310CDE983
:103DB0000143DDE913303A46129900F0F9F81DB0DD
:103DC000BDE8F08F2DE9F04F2DED028B87B08069B3
:103DD000018809B1426800E00022526832B109B19D
:103DE000426800E000225268156800E000250129C1
:103DF00002D942680C3200E00022526842B1012927
:103E000002D942680C3200E000225268146800E0D7
:103E10000024022902D94268183200E000225268C8
:103E20003AB1022902D94268183200E000225268F1
:103E30001268022993460BD9426812F1180F07D075
:103E400032F8183F012B03D9526812B1526800E0D2
:103E500000220492EA68E3684FF0000AD2F8048076
:103E6000D3F80490D3E902235A430092DBF81830C8
:103E70001A68C2F3C616C2F34157FE4006960329DC
:103E800002D94668243600E00026766856B1032938
:103E900002D94068243000E000204068006808B182
:103EA000866900E00026C2F34340042801D00828B8
:103EB0000ED1DF685EB1D6E90001FFF7F8F9D6F858
:103EC0000CA002465146384600F00CFA00E0BA4613
:103ED000DBF8140000999FED358A40680390A069D3
:103EE0008468A86904EB89078068029009FB01F0E7
:103EF00004EB8000059051E0DBF818008668049818
:103F000010B18069856800E00025BAF1000F35D056
:103F10000698042816D02EE015B1B5EC010A01E090
:103F2000B0EE480A8DED010ACDF8008052463146C8
:103F300001A8029BFEF74CF903989DED010A064487
:103F4000A4EC010ABC42E7D322E015B1B5EC010AAA
:103F500001E0B0EE480A8DED010ACDF8008052462E
:103F6000314601A8029BFEF7C9F903989DED010AAD
:103F70000644A4EC010ABC42E7D309E02B463246D2
:103F800020460299CDE9008900F0CAF804EB8904C3
:103F9000029907EB890701EB88000290059884429B
:103FA000AAD307B0BDEC028BBDE8F08F0000000083
:103FB0002DE9F04F2DED028B9BB02F9C279E159283
:103FC000CDE91303C4F1000A00209FED548ACDE926
:103FD0001701DDE92C40444326984443179893E0A9
:103FE0002E9840420F90CAF10000002800DC00200B
:103FF000814629983299A0EB0A00884200D30846EE
:10400000289A0AEB09015143269AA0EB0900514373
:10401000DDE9132B1090159D02EB8101DDF8608026
:10402000A5F100601291B0F1807F27D2002722E035
:10403000149810B1BBEC010A01E0B0EE480ADDE9CA
:104040000F20CDE90602CDF81490DDE92C3030992F
:104050000891289A2A990096CDE90330CDE90121EB
:104060002A464046269B1299FFF746FA05EB84053F
:1040700008F104087F1CB742DAD33AE0A000FEF74B
:104080006FF800270E902FE0002009E005EB80017B
:1040900091ED000A0E9901EB8001401C81ED000AB0
:1040A0008442F3D8149810B1BBEC010A01E0B0EEE1
:1040B000480ADDE90F123098CDE90710CDE90592E5
:1040C000DDE92C10289B2A9A0096CDE90310CDE952
:1040D00001324046269B0E9A1299FFF70DFA05EB26
:1040E000840508F104087F1CB742CDD30E98FEF773
:1040F00009F82A981899704301EB800018901798D6
:104100003199401C8A4417902B998842FFF468AF7C
:104110001BB0BDEC028BBDE8F08F0000000000007A
:104120002DE9F04F06462DED028B81B09A46DDE970
:104130000C98344606EB88078B4615469FED168A89
:104140000EE000BF8DED008A4B465A462946684670
:10415000FDF75CFF9DED000A05EB8905A4EC010A63
:10416000BC42EFD3BAF1000F11D000210DE000BF27
:1041700006EB81000AEB810290ED000AD2ED000A05
:10418000491C30EE200A80ED000A4145F0D301B011
:10419000BDEC028BBDE8F08F0000000070B5054655
:1041A0008069018809B1426800E00022526832B19A
:1041B00009B1426800E000225268146800E000245F
:1041C000012902D942680C3200E00022526842B153
:1041D000012902D940680C3000E0002040680668E0
:1041E00000E00026E86988B14068012804F1080071
:1041F0002CD0FFF7DAFC0246E8698368A069816881
:10420000B0698068BDE87040FEF76AB9B069866839
:10421000A069856804F10800FFF7C7FC05EB800181
:1042200006EB8000DFED100A0BE000BF91ED000A05
:10423000B5EEC00AF1EE10FA01D8B0EE600A80EDDA
:10424000000A001F091FA942F0D270BDFFF7ADFCA4
:104250000246E8698368A0698168B0698068BDE842
:104260007040FEF793B90000000000000146C068EE
:104270004A698969C068D26809685043044A114094
:10428000A1F58022C03A01D1C01DC00870470000CE
:10429000FFFF7F012DE9F0410B3020F00706104DA4
:1042A00019E02068B04215D3B0420AD9871B201DFF
:1042B000D4F80480FBF796FFA019C0E900782860C5
:1042C00004E060682860201DFBF78CFF201D26603D
:1042D000BDE8F081251D2C68002CE2D10020F7E715
:1042E00008000020F0B588420ED0002A0CD08318B8
:1042F000814210D999420ED2114403E013F8012DE6
:1043000001F8012D8342F9D8F0BD00BF10F8013B40
:1043100001F8013B521E8B0701D0002AF6D1170984
:1043200011E000BF50F8046B7F1E50F8045B50F89A
:10433000084B50F8043C41F8046B41F8045B41F829
:10434000084B41F8043C002FECD1C2F3810304E098
:1043500050F8044B41F8044B5B1E002BF8D102F0DF
:10436000030204E010F8013B01F8013B521E002A51
:10437000F8D1F0BD30100000011000000210000064
:1043800008010000010200000105000010100000FB
:104390003341000010100000010000000000000088
:1043A000010000000000000001000000010000000A
:1043B00040040400000000000000000000000000B5
:1043C000000000000104000000000000DECAFAA1A5
:1043D00000000000000000000000000000000000DD
:1043E000DDDDDDDDDCBBBBDDDDDDDDDDDDDDDDDD42
:1043F0009888888888888888777777777788888882
:104400008555555666666666666666666668888819
:104410008333333222222222222222222228888D12
:1044200000000100A0040010000001007004002042
:104430000400000020010020040000009000002083
:1044400004000000B8020020020304050607080962
:104450000A0B0C0D0E0F10100102030405060708CD
:10446000090A0B0C0D0E0F100000000000000000E8
:10447000010203040607080900000000010203040A
:10448000040000000802001004000000F4010020F5
:104490000400000048010010040000009003001018
:1044A000040000000803001004000000880200104F
:1044B00000000000000000000000000000000000FC
:1044C00058F95DC00578DE3E529D893F22BC1F40F1
:1044D000A0EA63408C69334064AB45408C44933F11
:1044E000A212C5BFFA9D63C0955F7E3E05D2AD3E68
:1044F00062ABD53EAF2123BF1C588E3EA2150E3FA6
:10450000F9992C3E5539AABDDA33BC3E414D96BED1
:10451000CCA6003E2F80833913EE233FA1043C3FFD
:104520002FD8F03E96D1923EDB4F97BF9FAD38BC5F
:104530004A1712BFFC8E4C3FACE0B23E723E00BD4B
:10454000DA80243D2C81113F2BFA55BF1EDB15BEAE
:104550009E2B6EBE5B0B1DBF8AE3D03CD425DFBD16
:10456000A4F2B4BE7CF96F3E580F10BF58A3873D2C
:1045700041721EBFBAE480BE27AB2D3F378ED3BE3B
:1045800094B0CC3EFB61A1BFF004983B9E6673BF24
:104590006B3279BE011541BFBE70D03EBE70A43FE4
:1045A000AF69EF3E9063C6BE38CE2E3F7F61F3BE4B
:1045B000AF5CA4BD7980BE3EBD6C2DBF5B9CABBE25
:1045C00016FE3F3CD213A2BD0A0451BB9E93BFBE50
:1045D000B12FEB3E1F8106BF32831A3E5AD9CEBEA1
:1045E000E3F3F93ED9FD49BFF042223F6E028FBF8F
:1045F0009642E43ED68CB5BFA706753FFD1B85BF2E
:10460000B66D833F925E33BF9018863F9FC59BBFB8
:10461000FAC84D3F7F0174BFCF59E73E16F801BF7E
:104620000CC934BF0C7DBC3CAE2FAC3DA57E6EBE2C
:10463000B22F32BF6D5A16BFC99DC13EA21B15BF16
:10464000AE9408BD0D4D313EBA06053E5EFAC9BEB8
:104650009D43613F8A7B3A3F4CF7793F39C038BF71
:104660000E5C293E288CEA3E61277C3E014160BEFB
:10467000BD9B213E5BAEE63E73D6CF3E028D96BE1D
:1046800024BA433E5B97CF3EFC22A33EB90F8DBEBA
:10469000A51AA43D6362863E1645303E9D6982BEE2
:1046A0004C5BD0BE0E00D23E977C01BF28C2103FAB
:1046B000C740AEBE13E1B73D7629A5BF3E725F3F4E
:1046C000158F813CC41F8DBD443C37BF0EFE8D3F0E
:1046D000658C39BE6E10E0BCEA21F3BEA8969C3F03
:1046E00040D556BEED180EBF1782C8BD6F7CC2BD47
:1046F000813BDC3E2D39F53E8C634B3FE3FAEABE4D
:104700009612053F8A89213F52C2C43E68A8C6BEA0
:104710002314D93EFECEACBE9A2181BE243FD6BE24
:104720006E1A923E4E81443FF899B13E00C290BC51
:104730004E8F84BE1403273DF6C899BED4B498BEEC
:10474000B3A097BE918C96BE6F7895BE4D6494BE13
:104750003EA693BE0A3C92BEE82791BEC61390BE09
:10476000A5FF8EBE83EB8DBE61CA8CBE3FC38BBEE0
:104770001EAF8ABEFC9A89BEDA8688BEB87287BE32
:10478000A5D785BE754A85BE533684BE5FCA82BE34
:10479000100E82BEEEF980BE8A0A7FBE9C187DBED6
:1047A00053FC7ABECE5279BE632778BEE89D74BEB4
:1047B000821F72BEC0B170BE7D896EBE39616CBE93
:1047C000E31E6ABE3E0E68BE028565BE805E63BEA5
:1047D00066F561BEAC725FBE678B5DBE1E1F5BBEC1
:1047E000243E59BE94DF56BEE89255BE2C8552BE7B
:1047F000533C51BE637C4EBED9274CBE158F4ABE7A
:104800001CD047BEA98F45BE6BB343BE652941BED0
:1048100014713EBEF70A3CBE9C0D3ABEB5FC38BED4
:104820003C6436BE305435BE8AFC31BE8C812FBE0E
:10483000062A2DBE48AD2BBEE77F29BEEDC027BEA0
:10484000AC1725BE953623BEE72B21BE92671EBE50
:1048500075D01CBEF3421BBE225118BE5BE215BED2
:10486000DF0513BE739811BEE1AB0FBEE47C0DBE35
:10487000C89B0BBE430E09BEAF9306BE2C0705BEF8
:10488000D67B02BE533500BE1D9FFCBDB987F7BD68
:104890005177F3BDA3F9EEBDA165EBBD77C3E7BDCD
:1048A00023B8E2BDCEAFDEBD2FF7D9BDDE02D5BD48
:1048B000B573D1BD40D5CDBDD6EAC8BD6FBFC4BDAF
:1048C000AF47C0BD2714BCBDDCE6B7BD2FBCB3BD30
:1048D000D025B0BD8B4DACBD5C5AA7BD8638A2BDFE
:1048E0005EA09DBD8A2B99BD7A8594BD493D90BD42
:1048F000B3D38BBD3B0189BD3A5F84BD7D5F7FBD76
:10490000D70176BD31C36EBD5C1666BDFA985CBD3D
:10491000062E54BD1D0B4BBD765642BD41F639BD2A
:10492000611432BD6B1229BDA13921BD468417BD6A
:104930009F090DBD949006BDCC36FCBC64F9EABC61
:10494000B4E0D8BCE1D7C7BCBEFAB5BC7012A5BCF8
:10495000865B93BCF72D84BCF97064BCA3B640BCE5
:1049600019921CBC38C3F8BB9FB3B5BB27B04FBB73
:10497000D32B93BAC03F543A1FDE433BBEC7A43B80
:104980007B28E33B2B3D183CD5AC3A3C32CD643C14
:1049900013D1833CD2678F3C4547A13C7883B33C1D
:1049A000600AC43CB400D73C42D6E73C2653FA3CEC
:1049B000B945073DA2A2103D0773183D9E27203D33
:1049C000FE53283D74522F3DC023373D0613413D11
:1049D0001EC34A3DBB5A523DD7845B3D7D85633D36
:1049E0000D176C3D54A8743D9BC87C3DD019833D88
:1049F000FF7C873D19208C3DA7CA903D7BFE943DEE
:104A00001EB5983D94BF9C3D41D5A03D5D54A53D4C
:104A1000E76EAA3DDA33AF3DBB37B33DC65CB63D6A
:104A200011A3BA3DB122C03D0A24C43D2760C83D50
:104A3000544FCC3D33F1D03D6359D53D579FD83DC0
:104A40005408DD3D5BA0E13D2AAAE63D4BBDEA3DB1
:104A50008B3BEF3DDE58F33D2D40F83D865EFC3D3F
:104A60000D00003EE375023EDAA5043EBC01073EA0
:104A7000C8A2083EB7760A3E3CF70C3EF9AB0F3EA3
:104A8000ED53123EC771143EF92A163E0BD0173E65
:104A9000FC131A3ED9451C3E1A6A1E3ECDAB203E81
:104AA0000701223E4882243E3A2A273E5E3D293EA7
:104AB00092042C3E5C942E3EE86E303E4541323EE0
:104AC000860F343E022C363EEA95383EFDF4393EE0
:104AD0008EBB3C3EBB533F3E6E3B413EF368433E84
:104AE0004E42453E12A6473E488C493E3F274B3E2C
:104AF0005F1F4D3E04394F3E562D523E83C4533EF8
:104B0000DD7D563E73A5573E64CE5A3EADA55C3E54
:104B1000EB1E5F3E2E47613E726F633EB597653E6A
:104B2000F9BF673E3CE8693E30566B3E62C86D3E59
:104B3000A41E713E4A89723E8D9F6FB379A0AB9BD4
:104B4000AC976690BCAC91AE628395A5BC82719324
:104B500092AF7DE64AA6ADA7899458747BC17F8742
:104B60007570ADA5A5C97DA57498ACA39BBA7CC58D
:104B700078C85988ADBAC8AE1ACF7AA888755E933E
:104B80009DB8B98B6299C49992C68C8A648996A3A0
:104B90004EC87DA6B4925B8489D3927040A9C4C5E7
:104BA0007FBE34BAB9C382A849A9ACD66D6A93A9AD
:104BB0008A6491839293A3AEC97AA4A4B498AEA652
:104BC0008876D1C8ACAF488E90B8989E6588BE886C
:104BD00071928EB0838F7A9475B69F897EA2947FEE
:104BE0009E876C6D84B88BA78DA557ADC6BF9CAF53
:104BF000199790B7AF9851ACB5C19D915EB0B9DA35
:104C00007DA665C474B2889DA3948DB1BAA6518067
:104C1000D5876B7B53BDC2BCC783279DB0B3A29E13
:104C20007F91828EB47B6C9AA8B79DAA61A3BFAE18
:104C30006C7053A5AD98795C417DB59D8D745075B0
:104C4000B5B4C69D77A5A7DCAF8F6D729ED0BF921D
:104C5000529BA0B67B7A5A9091BD8C9F5C819795B0
:104C6000A98D808488D770999876A9B6A9929395D2
:104C7000AB846A9A41A499B7B7B333B6BDDEA49B9F
:104C800070A79EC4C67A526B75A49579997B8A7772
:104C9000ADBA75838DB3BB8D57A093C18CA862CE7E
:104CA000BBC9DAE01A98B5DBA68836939EA768746C
:104CB0007962AA8E77B6A2987DAB84977F7AB6C6C2
:104CC000AAAF6B9E7CC5A3C12F93DEF19C8D30CC27
:104CD0009AEA877654D5B795949E6E9685A079A466
:104CE000986D76CF79B85BB181AF6AB63697A1B9C6
:104CF000AEBF479694A58F9D42889DA36569828E1D
:104D0000956C9CA3987883686390A387858D806A4F
:104D1000A49D7F8293697FA5ACC4D68B68A6CBCFB8
:104D2000B3E589ADA9A1A7AE6F93BB926BAD889F88
:104D30005D82937F91797B5C5A60A49E7F4652711D
:104D4000A59B57415237B2365C4062159531979911
:104D50009180A99B9DA4D48D77BDA5A4C1CA89C605
:104D600092A39BDE89909FAAA0A9747B7AB07F88CA
:104D70007498A1A97FAC8EA4B88A7AB29A69678226
:104D8000799FAB743D5CA693A7578A60755198993B
:104D90008D7F8FA5948D6D8DA28BB06E5B6C8669B7
:104DA0008568A79E7A618469A9A39D7C8DB1859C45
:104DB0009AB18C9A939D979892AFAD9599A77FB928
:104DC0007DAA7F9B96AA898E90AD81B6BF948C8177
:104DD00071A985A491768F789C98B39C72AF77B0B7
:104DE000649DAA8576AD768E9F5C865F6F8D8F6C95
:104DF0004F67442E9C3666565826C643967F684DAC
:104E0000AEA69E8F8496A0A0A5A39386939BA5B3E0
:104E10009DC172E2B5A0CDE767BECAD0D4B87DC44B
:104E2000B2B581AB7AB8939589B58D698A8A7E6867
:104E3000A8678774A570B184616D626EB25A5F72A3
:104E40005E5AB45B79725349B041998DB86EA492A1
:104E5000969CB99D84A1B999ABD65BB4A1BDCCCDCC
:104E600066B2A2A4B69379C7B2A9A9AE89B7868F54
:104E7000758D969E7F55188EAD5A284C1A39AE1DE9
:104E800039654F00BB2B645DD57FBE6B9D88C1A982
:104E9000B29FB49C82C774E2B7AFADB46092A6AFC4
:104EA000D1D95F99A8AA94A17AB4AA956CC06C973D
:104EB0007F76638A9D5668673F4DB7547C6C836DDF
:104EC000A2817C82847AA17D958A809C8DB99995F6
:104ED0009F9A8AB8ABA4A2848A808E6E78919070D3
:104EE00085844B6EAF5B6C7E5D82A86350725955B2
:104EF000B76F6D638779AA79A97DA995A697AB86C7
:104F0000A4A88892C6A09E875EA499B6B5885ABD0B
:104F1000CDCEC5AB619FA0A59CC073CDA2AB78BA26
:104F20009EAD817E698AA987897D5B78AA54855F59
:104F3000594EAF7E6F4E6D6DAB798A6C8559977304
:104F400070715B4C9F8B73769E6E986D8C99936F8E
:104F500089987782AFA47B8CAE9AB297829FB39DDB
:104F60009FA67DC097A8B49883A096B4A8A7749E66
:104F7000A19290AE92B28DA37A8E9AAF6A624D8E54
:104F800095665F665E519F9A636A61639A96A073A5
:104F90007895918D847EA1809C9FBE948DBB98C096
:104FA000B3A28FBCA4968D99A9A593A392706A61B0
:104FB0008A837F7CA59F9BB49C6E708BAA82A0780D
:104FC00086AF9686839E877A8A8FA19FC79D5E99BA
:104FD000D3C0BF9B86B9B2C3A8B065BD9DA1A78F42
:104FE00087A58F6E726B8A59575C6351993F4F4307
:104FF0004A3FD06948455688BB8E7A3F6A6BB66D8A
:10500000527386688F747BAEC383617CD1AFE7A592
:1050100055A4D1C4B7D65EB9A1AAB8AC5AA2BB9662
:10502000978A8BB5A86C826C938C715F87909D6416
:105030007F5C497BAE8056634D35AD545B5D6C67DC
:10504000AE5D8C8A8184AB9A8D9FC0B28D95AE90F7
:10505000B7A68BB3C7A9A5BF7DB8A3C2B7A47390E9
:105060008EB8B39186BDA2A899A0979D7A984A73ED
:10507000AB968985938AA990896D76829350796BD6
:10508000788F8E58728A7766A1735F8B75A79E7A28
:10509000B09773B075A58799B5A89B9F86827E99B6
:1050A00099A7659E946AB0948F616A9CB6904D6191
:1050B0007D759C637F79CC7690926692CD918D6858
:1050C0007D909ABB90D06F93B2BBA37898BFAE9DF2
:1050D000918A9F787DA47D78855A4176CAB368709D
:1050E00092B3B1536D639AC8788F738CAA857EAAE8
:1050F000A2C3AFBB709DBDBBAAE963BCA89D9AA922
:1051000095AE989580A0B2BF728DACB1B3A08289E4
:1051100075979FB4846769BCB58589907561D180A6
:1051200097578163B686B3718990859398789CB5BB
:1051300094B9978190B2A9C5BA609FD5947C8780B5
:10514000AA89B5976E8D88AB76A36860AAAABAB70C
:105150009EAF99AAD29385968278DCA15E8F87B59F
:10516000BD83816DA8A68876A97298BF7591C38EFC
:105170009AA677BBA57AAECD90C6C7886D84938575
:105180003E8D5A978C837D5A7C6B8057A770B08E6A
:10519000835E9D729B7AC4A6856A79B6B168798868
:1051A0008667B859567B68659889547154B7B84377
:1051B000816B6EB9AB657D818FC47E8B9498748A48
:1051C0009C7497ADA697A1A48CA5BFC0A4D1ADA196
:1051D000D1EBA4E576B26BC37DC0728A8FAF807FBE
:1051E000968D6E80DD89636C9AA4ED8D4268808B0C
:1051F000DC77884855B2D89C745295B3986D885F17
:10520000B3B79D876F8F8DBD8F9BB8ABBECC71D16F
:1052100096ADA1DE82B9AEC788CDB5D45C7E7F9C49
:10522000AA5C8E5D4583BD4B63743D5EFD9E51401F
:105230006251E88D3A66A76BC65C8C839987959D11
:10524000A699CAE5ABD5A5B6B1DD82C09F948DB550
:105250007998A87C69A57EBB7A969F8195A486A43F
:10526000A383847D938095797C82B49A7DB8B08045
:10527000807B9B917E9D737BB7788C956885879D9D
:105280008E7D99946285AAAF859D9C969068A5A90C
:10529000A2AC8188A3B88DA2A0928EA7ABADA1AD20
:1052A0009D9B9BB782AD9F9374979494928F519AD4
:1052B000A5A078996D98A162836E565DA56D6C511D
:1052C0003D31A356424E5444A27A5D6C686E983FBD
:1052D0007C899AA08BA1AEAEE0A7988FE4BCC8AA47
:1052E0006FC4D4DCEBF556C2A0E7CCE261ABCDAD28
:1052F000A5BA65AB7D8A746C935773632E4EBA3E24
:105300002A272E06C56235321930BD25581D762351
:10531000A43C5C878E61814DB19AC4A161AFE0C6A7
:10532000B2D04FB4CFBECBD25AAFD9B1B4C66DB3A1
:105330008FBA8A8C7CBB809B93888B90526067610C
:10534000B8835E55865ABC6B93566753A278758CAA
:10535000936FA18E7D8088819585708F5AA49880E7
:10536000888D809289AAAF7692A5926AA298927D42
:1053700099879A84B66E94BA89A3CCB385B699B747
:10538000B3B2609983B4C8BC73B290B880BB80C517
:105390006C805F919F9960566B8A996F4E535255FE
:1053A000AF615C436A62CF4F46536B3CA744919315
:1053B0008249A69C76B0B583718AA6B2A3BD81AAA4
:1053C000A9C0B1AE6CC1CBD092CF8CAB8E9C7BB45C
:1053D000789D996477B0977C8F8869568E848372A4
:1053E000786EA6527978587B8D738C738C8290A0DE
:1053F0007C7FAE818B639B8B96748788B190C2BA99
:1054000079729F8E8AACA2AA8DACA084929C927471
:105410009EA48E80789D78929D7B88A0907AA79894
:10542000848D5CBD43CA7DD7758A8773C798A26C8B
:1054300031CDA1A368874FBFD0D59A865F72908D7A
:10544000A5B172908A8FC17F4779869D7AC01D89E8
:10545000B0F376B441AF9D92A58D498CC4CAB6898C
:10546000596EC8C7977F9D88AFC6729D69AF80A5EA
:10547000C9C684C6AEDBDBA033A890C4B2A14FCEB0
:10548000C1D680B24E869DA4C19B77A797A6B16D69
:10549000889CCBB4AE597B6FA9BBA2D0608585FF39
:1054A000ADAE2E8DA9BF938B4694B9E3AB64768CD9
:1054B0008CCAAF5E779EB9AC84958F807498C68A8B
:1054C000758474B78E8048A3BCAE9FC15582C5E871
:1054D0009F8A23C2869FB17881B18EA88BD578B17F
:1054E000BEEA65908F90A8FCCF7C63A988D5C16681
:1054F00060A5C6D3CEB68F81BCD3CAA74F8A998E7A
:105500009D9540A2A285948A7A9BB4A16C8549811D
:10551000B9D87B73594DC791C581507A86799CA5BE
:1055200060818BD1BBB02CA293BED58C34ADBFA112
:10553000849F5CA594BB9E8F8A7AC3D58492B48ED7
:105540007DB15CB4579993D1A6CF3C9492BFA6B2DB
:105550001E93A0D8938837A590D7886A699C77EE68
:105560009F9A9D9976D27B756678948A7BBD788167
:1055700086C58A7F61BBDDD9D89A5AD2CCFDC39B40
:1055800061AE80A088BA5890C8AA7D895AAE71A130
:1055900064A5658F84989BB88486AB859DB2739A09
:1055A00080C5AEB569BCAEBEB9B166C0A0B1AF90A2
:1055B0009A7FA39097D683B9B9A6D1973F89ACA912
:1055C000A0BD5B8BAAFEC36622C1B3B4AC74538486
:1055D000B58DBFB78BA09ECD8EC25E8152B28A8B35
:1055E000915AA1D661955289416A5365AB83A170E6
:1055F000708F91749E93AA8A90939A8993B68EAF76
:10560000AA9A7DB4919D9B8CBEA67D8E90A97A9D11
:105610008A7F8C8CB5B488BDA89378809B786C8A7F
:105620007A8DA08C886D7B659780A78A8473AE6E17
:105630007596A9937AA69E7090729F9FA1968C678B
:1056400092877E736D7BA8728C9E9986B3947C90B2
:105650008397B4B49988A2B67B9786ACA88C636B09
:10566000BB9A96AC5985C8B38190737FA99FAB98BC
:105670007CA090525780A4683272425EB55E534B54
:105680004E51CE5258447E4DBB868193AAA29A8138
:10569000A3A8B17E6AB1C6BFB4BD42C5DFCFE2C622
:1056A0006BBCBBDB8EC560A0A87D42947E985E4E2D
:1056B0004055886A3624242BCB2A245E3E48CF1AD4
:1056C000411E464EC243384DA23B956DA49C956C3D
:1056D00077BD9FB4D8CE64D3E3D0C3EF45BDCEC170
:1056E000C3DD64D895A88BBB69AB7BBC71BB6E82F4
:1056F0007F89689D97A4715C2D98CA447564584948
:10570000A6556B74623C9D8461888863AC7EB5A1AC
:10571000BA8A8DAE9D9B91C69CACA9AE9F8D627CD2
:10572000A59D928F8287AB83776D98789087947EC2
:10573000B48CA9758F5FA29568696E8E8956678152
:10574000816E8766CD9698AB9DAD7888B1AD879B0D
:105750009DB87AADA8A4899D647E90808184928F43
:105760008B8D9470918DBA7B9777726C8E7F687EEB
:10577000858586808E989B888287889CB59D79B424
:105780007D868E9E7E9BA89775AF82AD7D9B8F9602
:10579000869D6C938F82A57E817C7B739080A371A4
:1057A00064A4A28696949886A671728B878799784E
:1057B000C2AC6AB6399C91A19EAD34B782C2B383A4
:1057C00052BD82BAA6AB578E9387B38998B7607DD6
:1057D000C6C53872AFC799AD2B9F7FD0A38D53B785
:1057E000A5B175AA1AC18CBBB7AA7887BAB7788554
:1057F0007F6FBCAA7AA967B18C9C986A4FA49AC1A2
:10580000958343CE88E19BB933A4C69E7DA124CF66
:105810008FC08DB7637C7CD077AD35718B6892A0DB
:10582000728698B7ACBF477B8CBDADBEA573A2BED8
:105830007D9B25B0ADD69FC749B6987A5683227016
:10584000BB71BAB82D7DB697A3A4359D83737C77C1
:10585000457B88C59DB3859095A27C950CBAB5898A
:10586000909D56C4819F6AC027C7A4D886923EB433
:10587000917C87D346ACA16E68ACB3A2A96678B21E
:105880007291AF899EAE2C939DD4A2D84F8370980D
:1058900098A01A9764AF956A4DD2A46B96CB61BA63
:1058A000539E7193577E87926896987EB7AFC9775B
:1058B0004A9D9DAE7DBE1CBCDFCE76BC5490B9AC7B
:1058C00086DD7B7B996F719469A9A4CFBD994E94B5
:1058D0009685919C82C092A484B744A79CAD9DB943
:1058E000599185C67F9B27B779BB93A53DBF93BED2
:1058F000A5A56D6484997B973CA0D0958D9560C7D4
:10590000928F9481247985798E8974A5A3DED2E65D
:105910005289D1BCAAC55EB17890A3C551B75D9D2F
:1059200060C337998C6D9CD159A0966995954F9716
:10593000A6A4876C7AA5A6C6ADAC56BBA8A7A2D074
:105940000C9795ADC49F307B6ACF9D9F687BA3A0C9
:10595000898A81C88692987F756C87C5BBA869B70C
:10596000A9C3C3B2686899A06F86128D88A569A182
:105970007F837586A5B568A0802C5F3D9A5D91BD3B
:1059800068ED03BD662AA3BD37927CBD3779943D8F
:10599000663886BDF7E089BCB66B543EEF939D3EFA
:1059A00069A4C93E38F79EBE51DE043F7107E63B4D
:1059B000E036453F1C5D30BEEF24F33E383FE0BE8D
:1059C00038F318BF3DE63DBF4F4E92BE05D66B3E45
:1059D000E47718BE4C34983D409BB7BD429BB73D21
:1059E000256400256600302C252E366600312C25D6
:1059F0002E3666006F6B00626567696E00000000FE
:105A0000405A000800000020C00500000E110008E8
:105A1000805C000800000010C00500000E110008A6
:105A2000805C0008C005002060290000C02100083B
:105A3000C85E0008C005001048090000C021000829
:105A4000C1CF401082016E0210DA28200A1D0430F6
:105A5000DA0A20991F1132014B20150869048B7C4A
:105A6000130C134C042A10081304016A10301A8C0A
:105A7000334132035A0818418B28062429641A3707
:105A800009690C5A051829ACA908290413D0031B6D
:105A9000106C3C1A0C041A2C04E9401390051B20CE
:105AA000EC244B2C037829141925790C5A88842965
:105AB000905A1418411AC438692429041A71556976
:105AC0000C69902968A908699C0912045A080413F2
:105AD00088051410C4044C20BC04AC2914693C296A
